:10000000008000203D05000035050000350500009A
:1000100000000000000000000000000000000000E0
:100020000000000000000000000000003505000096
:10003000000000000000000035050000C1050000C0
:100040003505000035050000350500001D010000E4
:10005000991200003505000035050000D9050000A3
:1000600035050000211C00003505000035050000A5
:100070003505000035050000391C0000350500007D
:100080003505000035050000350500003505000088
:1000900000000000350500003505000035050000B2
:1000A0003505000035050000350500003505000068
:1000B0000000000010B5064C2378002B07D1054B3B
:1000C000002B02D0044800E000BF0123237010BDC4
:1000D0002C0000200000000018310000084B10B573
:1000E000002B03D00749084800E000BF0748036819
:1000F000002B00D110BD064B002BFBD09847F9E731
:10010000000000003000002018310000280000200E
:10011000000000000023037070470000044B10B57E
:100120001B68002B00D098470122024B1A7210BDA9
:100130004800002000140040037810B5002B0BD0BD
:100140000724064B21401A7F0800A24311000143F7
:1001500019779A7AD209FCD110BDC046001400402C
:10016000014B19607047C046480000200423034A31
:1001700011690B43136130BF7047C04600ED00E0CA
:10018000037810B5002B0BD03F24064B21401A6991
:100190000800A2431100014319619A7AD209FCD1E7
:1001A00010BDC046001400400378002B0BD03F2048
:1001B000054B08401A690549800111400143196146
:1001C0009A7AD209FCD17047001400403FF0FFFF3B
:1001D0000378002B0BD01F20054B08401A690549F6
:1001E00000031140014319619A7AD209FCD170478A
:1001F00000140040FF0FFEFF70B5160002780400E7
:100200000D00002A0AD01900FFF7BAFF31002000C4
:10021000FFF7CAFF29002000FFF7DAFF70BD0000DA
:100220000378002B0BD01F20054B08401A690549A5
:1002300040041140014319619A7AD209FCD17047F8
:1002400000140040FFFFC1FF0378002B0BD00F20EC
:10025000054B08401A6905498005114001431961A1
:100260009A7AD209FCD1704700140040FFFF3FFC8E
:100270000378002B09D0054A88061369990189097A
:1002800001431161937ADB09FCD1704700140040EF
:1002900070B51D00037804001600002B09D0FFF78D
:1002A000BFFF31002000FFF7CFFF29002000FFF73C
:1002B000DFFF70BD037810B5002B0BD03F24064B39
:1002C00021409A690800A2431100014399619A7A7A
:1002D000D209FCD110BDC046001400400378002BA9
:1002E0000BD03F20054B08409A6905498001114019
:1002F000014399619A7AD209FCD1704700140040F9
:100300003FF0FFFF0378002B0BD01F20054B084068
:100310009A69054900031140014399619A7AD2090B
:10032000FCD1704700140040FF0FFEFF70B51600AF
:10033000027804000D00002A0AD01900FFF7BAFF66
:1003400031002000FFF7CAFF29002000FFF7DAFF85
:1003500070BD0000094B0A4A9A605A7852B2002ACE
:10036000FBDB084A5A605A7852B2002AFBDB064A85
:100370005A805A78D209FCD17047C046000C004020
:100380000204000002051100044200000221044B97
:100390001A888A431A809A7AD209FCD17047C046DB
:1003A000001400400222044B19880A431A809A7AEA
:1003B000D209FCD17047C046001400400122044B12
:1003C00019880A431A809A7AD209FCD17047C0462C
:1003D000001400400121044B1A888A431A809A7A3B
:1003E000D209FCD17047C046001400402023F7B565
:1003F0000026294A0F00916905000B439361274AA3
:10040000274B284C9A82B74214D1274B1A78702375
:100410001A4209D13E000DE0002E39D0019B236124
:10042000A37ADB09FCD133E023881B07F2D5012630
:10043000236901932800FFF78DFF2800FFF7A6FF2F
:100440002800FFF7BBFF6388184A13406380184BEE
:100450002380A37ADB09FCD1C021164A083313603C
:10046000890053581B021B0A53500123E27913439E
:100470000722E371237F93432377A37ADB09FCD11F
:100480002800FFF78FFF2800FFF7A4FF002FC3D03D
:1004900001232B70F7BDC04600040040CE060000CB
:1004A000000800400014004038040040FFBFFFFF78
:1004B000080A000000E100E07047000010B5134892
:1004C00000F098F8124C00212000FFF78FFF002366
:1004D00020001A001900FFF78FFE200010230922C8
:1004E0001821FFF7D5FE00220A2311002000FFF794
:1004F0001DFF20000321FFF71FFE06492000FFF724
:100500002FFE2000FFF732FE10BDC046B80B0000E2
:100510004D000020B90400007047000010B50348EA
:10052000FFF7F8FD0248FFF7F5FD10BD4C00002075
:100530004D00002080B500AF03BEFEE780B582B05D
:1005400000AF1A4B7B601A4B3B60194A194B9A4219
:1005500012D07A683B689A420ED009E07B681A682C
:100560003B681A603B6804333B607B6804337B6004
:100570003A68104B9A42F1D30D4A0E4B9A4210D072
:100580007A683B689A420CD00B4B3B6005E03B68B5
:1005900000221A603B6804333B603A68074B9A427A
:1005A000F5D300F0B1F800F05DF8FEE790310000FF
:1005B000000000202C0000202C000020D406002089
:1005C00080B500AF00F043F8031E02D100F02CF814
:1005D00000E0C046BD4680BD80B500AF044B1B683F
:1005E000002B02D0024B1B689847C046BD4680BD19
:1005F0005000002080B584B000AF78607B68002B8D
:100600000CD0084B1B68FB6000F01CF8054B1A6807
:10061000FB68D21A7B689A42F6D300E0C046BD461A
:1006200004B080BD5400002080B500AF044B1B68AF
:100630005A1C034B1A6000F04DF8C046BD4680BD01
:100640005400002080B500AFC046BD4680BD80B5D7
:1006500000AF00231800BD4680BD80B500AFC04686
:10066000BD4680BD80B500AF00F0D6FE02F048FA6E
:10067000FFF7F3FF0120FFF7BDFFFFF71FFFFFF7B5
:100680004BFF034B002BFAD000E000BFF7E7C0465A
:100690000000000080B500AFBFF34F8F034B044A4A
:1006A000DA60BFF34F8FC046FDE7C04600ED00E0C3
:1006B0000400FA0580B500AF054B1B7DDBB21A00C4
:1006C000012313405A1E9341DBB21800BD4680BD82
:1006D0000040004180B500AF094B1B6801330BD0CF
:1006E000074B1B685A1E064B1A60054B1B68002BF4
:1006F00003D1044B984700E0C046BD4680BDC046CC
:10070000040000201D31000080B582B000AF794A9E
:1007100053681E218B4302210B435360764B764A6C
:10072000926908210A439A61744B754A9A82734A06
:10073000938A02210B439382C046704BDB680222EE
:100740001340FAD06F4B01221A70C0466D4B1B78D4
:10075000DBB21A000123134005D06A4B5B78DBB291
:100760005BB2002BF2DB674B01229A60C046654BFF
:100770005B78DBB25BB2002BF9DB624B624A5A60FA
:10078000C046604B5B78DBB25BB2002BF9DB5D4BA4
:100790008222D2015A80C0465A4B5B78DBB25BB2F0
:1007A000002BF9DB554B02229A84C046534BDB6881
:1007B00010221340FAD0514B544ADA62C0464F4BD4
:1007C000DB6810221340FAD04C4A4C4B9B8C9BB2F6
:1007D0004F490B439BB29384C046484BDB681022C1
:1007E0001340FAD0454A454B9B8C9BB202210B43E8
:1007F0009BB29384C046414BDB6880221340FAD001
:100800003E4BDB6840221340F5D0C0463B4BDB68D3
:1008100010221340FAD03B4B00229A60C046394B5D
:100820005B78DBB25BB2002BF9DB364B394A5A609E
:10083000C046344B5B78DBB25BB2002BF9DB2F4A4E
:10084000136A35490B4013622C4A136A80218B438B
:1008500013622C4B03229A602A4B304A5A60C046DE
:10086000284B5B78DBB25BB2002BF9DB224B00221A
:100870001A72214B00225A721F4B00229A721E4B91
:100880000022DA72264B274A1A60274B1B68DB08C6
:10089000072213407B60254B1B68DB0E3B60224B1D
:1008A0001B685B01FF2213403A6813433B602049F9
:1008B0007B689BB21B029AB2E023DB0013409AB222
:1008C0003B689BB2FF2003409BB213439BB20B8556
:1008D000084A536880210B435360164B154A12692E
:1008E00004210A431A61BFF34F8F30BFC046BD4693
:1008F00002B080BD004000410004004000080040FC
:100900000C060000000C004001050100B805FF7D49
:10091000040A000000050B00FFFCFFFF03060100B6
:100920000C000020006CDC0224608000206080004D
:100930000040004200ED00E080B582B000AF78607A
:1009400039607B683A685A60C046BD4602B080BDD7
:1009500080B582B000AF7860054A7B681A607B681A
:1009600000225A607B681800BD4602B080BDC046B8
:10097000D430000080B582B000AF7860002318004A
:10098000BD4602B080BD80B582B000AF7860C04681
:10099000BD4602B080BD000080B582B000AF786077
:1009A0007B681800FFF7D4FF054A7B681A607B68F4
:1009B000FA2292009A607B681800BD4602B080BDA2
:1009C000B02B000080B582B000AF786039607B68E2
:1009D0001800FFF7E1FF074A7B681A607B683A68F6
:1009E0001A617B6800221A767B681800BD4602B047
:1009F00080BDC0468C2B000080B582B000AF78600F
:100A00007B681B690221180000F038FA0300180007
:100A1000BD4602B080BD80B582B000AF78603F2394
:100A20001800BD4602B080BD80B582B000AF7860CE
:100A30000B4B1B68013302D0094B1B680BE07B6832
:100A40001B6814331B687A68100098470200044B37
:100A50001A60034B1B681800BD4602B080BDC0463B
:100A60000800002080B584B000AF78600B4B1B6895
:100A7000013308D0094B1B68FB60084B012252422E
:100A80001A60FB6806E07B681B690221180000F011
:100A9000B5FA03001800BD4604B080BD0800002070
:100AA00080B582B000AF78607B681B6903211800B5
:100AB00000F0BEF9C046BD4602B080BD80B586B02C
:100AC00000AFF860B9607A60FB6818697B68BA6843
:100AD000032100F0E9FA03007B617B69002B01D060
:100AE0007B6905E0FB6801211800FFF725FF002363
:100AF0001800BD4606B080BD80B582B000AF7860FA
:100B00000A00FB1C1A707B681B6804331B68F91C05
:100B100078680122984703001800BD4602B080BDE6
:100B200080B582B000AF786039607B68012B09D155
:100B30003B68064A934205D1054A064B110018004E
:100B4000FFF740FFC046BD4602B080BDFFFF00007A
:100B5000240500205800002080B500AF034B190089
:100B60000120FFF7DDFFBD4680BDC046FFFF00004E
:100B700080B582B000AF78607B681800BD4602B0D7
:100B800080BD80B582B000AF78607B681800BD463C
:100B900002B080BDB0B582B000AF78607B68012440
:100BA0001D00002C05DB2800FFF7EBFF1035013C92
:100BB000F7E77B681800BD4602B0B0BDB0B582B0A3
:100BC00000AF78607B68094A1A607B6804330724A9
:100BD0001D00002C05DB2800FFF7DCFF2035013C61
:100BE000F7E77B681800BD4602B0B0BD0050004179
:100BF00080B582B000AF78600A00FB1C1A707B6879
:100C00001A68FB1C1B7808335B01D318DB799B0740
:100C1000DB0FDBB21800BD4602B080BD80B582B0EC
:100C200000AF78600A00FB1C1A707B681A68FB1C16
:100C30001B7808335B01D318073301221A70C046B2
:100C4000BD4602B080BD80B582B000AF78600A00BA
:100C5000FB1C1A707B681A68FB1C1B7808335B014D
:100C6000D318073302221A70C046BD4602B080BDB9
:100C700080B582B000AF78600A00FB1C1A707B68F8
:100C80001968FB1C1A7884235B0052018A18D21859
:100C9000537801210B435370C046BD4602B080BD5E
:100CA00080B582B000AF78600A00FB1C1A707B68C8
:100CB0001968FB1C1A7884235B0052018A18D21829
:100CC000137801210B431370C046BD4602B080BDAE
:100CD00080B582B000AF78600A00FB1C1A707B6898
:100CE0001A68FB1C1B7808335B01D3189B791B0621
:100CF000DB0FDBB21800BD4602B080BD80B582B00C
:100D000000AF78600A00FB1C1A707B681A68FB1C35
:100D10001B7808335B01D2185379802149420B4379
:100D20005371C046BD4602B080BD80B582B000AFF1
:100D300078600A00FB1C1A707B681A68FB1C1B7821
:100D400008335B01D218137940210B431371C0465D
:100D5000BD4602B080BD80B582B000AF78600A00A9
:100D6000FB1C1A70FB1C1B787A685B01D3189B680C
:100D70009B049B0C9BB21800BD4602B080BD80B5A1
:100D800082B000AF786008001100FB1C021C1A70D2
:100D90003B000A1C1A80FB1C1B783A001288920444
:100DA000920C91B27A685B01D3189A688904890C15
:100DB000920B92030A439A60C046BD4602B080BDC2
:100DC00080B582B000AF786008001100FB1C021CE7
:100DD0001A703B000A1C1A80FB1C1B783A00128810
:100DE0009204920C91B27A685B01D31810339A681E
:100DF0008904890C920B92030A439A60C046BD464F
:100E000002B080BD80B584B000AFF8607A600B237B
:100E1000FB180A1C1A700B23FB181B787A68F968F8
:100E20005B01CB1814331A60C046BD4604B080BDC8
:100E300080B582B000AF786039603A687B68110095
:100E4000180000F01BF803005A1E9341DBB2002B80
:100E50000DD03B68DAB2084B11001800FFF74EFFC7
:100E60003B68DAB2044B11001800FFF7ECFEC046F5
:100E7000BD4602B080BDC0467400002080B582B07F
:100E800000AF78603960104B3A689200D358002B5D
:100E90000ED00D4B3A689200D3581B6808331B687C
:100EA000094A396889008A5810009847030007E00A
:100EB0003B68DAB2054B11001800FFF74CFF030046
:100EC0001800BD4602B080BD00050020740000205F
:100ED00080B584B000AFF860B9607A603B60424B87
:100EE0001B685A425341DBB2002B02D001235B4204
:100EF00076E03E4B1B78DBB25A425341DBB2002B0B
:100F000003D000211E2000F0A1FC384B64221A708F
:100F1000374BBA689200D358002B0FD0344BBA68C5
:100F20009200D3581B6804331B68314AB9688900A2
:100F300088583A6879689847030051E0BA68FB68B6
:100F400011001800FFF79AFF02003B689A429B418C
:100F50005B42DBB2002B07D0BA68FB6811001800B7
:100F6000FFF78CFF03003B60BA68FB6811001800B4
:100F700000F062F8BB68DAB21E4B11001800FFF7F0
:100F80008FFEBB689A011C4BD1183A687B68180029
:100F900001F0DAFD3B68002B09D0BA68FB6811004C
:100FA0001800FFF76BFF031E01D1012300E00023AF
:100FB000002B14D0BB68DAB20E4B11001800FFF7FB
:100FC000B4FEBB68DAB20B4B11001800FFF726FE27
:100FD000BB68DAB2074B11001800FFF749FE3B6807
:100FE0001800BD4604B080BD7C01002079010020BE
:100FF00000050020740000208001002080B584B02E
:1010000000AF786039600F23FA18396878680123D7
:10101000FFF75EFF0300013B5A1E9341DBB2002B3A
:1010200002D001235B4202E00F23FB181B7818005B
:10103000BD4604B080BD000090B585B000AF7860BB
:1010400039603B68DAB20E23FC18164B1100180009
:10105000FFF781FE030023800E23FB181B883F2B24
:101060000BDD3B68D9B20E23FB181B88403B9AB2BC
:101070000C4B1800FFF783FE06E03B68D9B2094B22
:1010800000221800FFF77BFE3B68DAB2054B110027
:101090001800FFF760FE0300DBB21800BD4605B084
:1010A00090BDC0467400002080B588B000AFF860E5
:1010B000B9607A603B600023FB610023BB61594B40
:1010C0001B685A425341DBB2002B02D001235B4222
:1010D000A4E03A688023DB019A4202D901235B42F3
:1010E0009CE0514B1B78DBB25A425341DBB2002BE0
:1010F00003D000211F2000F0A9FB4B4B64221A7083
:101100003B68002B00D188E0BB68DAB2474B110086
:101110001800FFF7DDFD031E3CD0454B1B68454919
:10112000180001F053FC03001A00434B53431721EE
:10113000180001F04BFC03007B61BB68DAB23B4B4B
:1011400011001800FFF754FD03001A00012353405B
:10115000DBB2002B1ED0394ABB68D3181B78002B9A
:1011600004D17B695A1E7A61002B01D1012300E072
:101170000023002BE1D0314ABB68D31801221A703A
:10118000BB68D9B2294B00221800FFF719FE0123D2
:101190005B4243E0294ABB68D31800221A703B68BF
:1011A0003F2B02D93F23BB6101E03B68BB61BB68B9
:1011B0009A01234BD318BA697968180001F0C4FC6E
:1011C000BB68D9B2BB689A011D4BD218174B1800E7
:1011D000FFF718FEBB68D9B2BB699AB2134B18006F
:1011E000FFF7EEFDBB68DAB2104B11001800FFF7F5
:1011F0002AFDBB68DAB20D4B11001800FFF77EFD27
:10120000FA69BB69D318FB613A68BB69D31A3B60C2
:101210007A68BB69D3187B6072E7FB691800BD462A
:1012200008B080BD7C0100207801002074000020FF
:101230000C00002040420F00701101001C0500202E
:101240004003002080B582B000AF786039607B68D1
:10125000012B0BD13B68074A934207D1064B18007C
:10126000FFF7ACFC054B1800FFF782FCC046BD46FB
:1012700002B080BDFFFF00007400002024050020A4
:1012800080B500AF034B19000120FFF7DBFFBD461F
:1012900080BDC046FFFF000080B582B000AF0023D4
:1012A0007B601BE0114B1B6901217A6891400A00A9
:1012B000134010D00E4B7A689200D358002B04D004
:1012C0000B4B7A689200D3589847084B01217A68F3
:1012D00091400A001A617B6801337B607B680F2BA9
:1012E000E0D9C046BD4602B080BDC04600180040EF
:1012F00028050020B0B582B000AF02003960FB1DA8
:101300001A70FB1D1B787F2B32D92F4CFB1D1B78CD
:101310001A000F231340083B99082B4AFB1D1B782A
:1013200018000F230340083B9B0806339B00D3188B
:1013300004331B68FA1D1278100003220240D20009
:10134000FF2090400200D2431A403B689B01FF20DF
:101350001840FB1D1B781D0003232B40DB00984029
:1013600003001A438B1D9B00E31804331A6027E027
:10137000164CFB1D1B785BB29B081449FA1D1278B2
:1013800052B29208C03292005258F91D09780800F2
:1013900003210140C900FF2088400100C9431140DA
:1013A0003A689201FF201040FA1D127815000322BE
:1013B0002A40D200904002000A43C0339B001A51D9
:1013C000C046BD4602B0B0BD00ED00E000E100E067
:1013D00080B582B000AF78607B68013B0C4A9342D5
:1013E00001D9012310E00B4B7A68013A5A600123BE
:1013F0005B4203211800FFF77DFF064B00229A6035
:10140000044B07221A6000231800BD4602B080BDBD
:10141000FFFFFF0010E000E080B582B000AF3D4B61
:101420001A68FA239900100001F0D0FA030018009E
:10143000FFF7CEFF031E00D0FEE701235B4202212F
:101440001800FFF757FF344B334A126AFC210A4356
:101450001A62314B304A126AFC2189010A431A622E
:101460002D4B2D4A126AA021C9020A431A62002399
:101470007B6007E07B680021180000F0BDF87B6806
:1014800001337B607B68122BF4D9C046234B5B7819
:10149000DBB25BB2002BF9DB204B214A5A80C046FD
:1014A000204B5B7E1B06DB0FDBB2012BF8D01D4B04
:1014B000E422D2009A801B4B3F22DA70C046194BBF
:1014C0005B7E1B06DB0FDBB2012BF8D0154BC02275
:1014D00052011A61134B00229A70002000F028F884
:1014E000C0460E4B5B78DBB25BB2002BF9DB0B4BDB
:1014F0000D4A5A80C0460D4BDB791B06DB0FDBB271
:10150000012BF8D0094B41225A70C046BD4602B0AB
:1015100080BDC0460C00002000040040000C0040CC
:101520001E400000004000422140000000480042F0
:1015300080B582B000AF0200FB1D1A702B4B5B7EA2
:101540001B06DB0FDBB2012BF8D0FB1D1B78052B34
:1015500039D89A00264BD3181B689F46234A136933
:1015600024490B401361214A53780F218B43191CE6
:1015700001230B43537035E01C4A13691D490B408E
:1015800013611A4A53780F218B43191C03230B4311
:10159000537027E0154A136916490B401361134A2B
:1015A00053780F218B4353701CE0104A1369114983
:1015B0000B4013610D4A53780F218B43191C0223F2
:1015C0000B4353700EE0094A1369F02109050B43E0
:1015D0001361064A53780F218B43191C02230B43D6
:1015E0005370C046C046BD4602B080BD00400042B8
:1015F000CC2B0000FFFFFFF090B583B000AF786008
:10160000396090497A6813005B009B18DB00CB18A7
:1016100008331B785BB2013300D10EE13B68012B2C
:1016200000D1D6E005D3022B37D0032B00D182E0C6
:1016300004E1854883497A6813005B009B18DB004E
:101640005B561C007F497A6813005B009B18DB0027
:10165000CB1804331B684021E2018218D3185B18B1
:1016600002221A70784877497A6813005B009B1849
:10167000DB005B561C0073497A6813005B009B1803
:10168000DB00CB1804331B6801229A4013001A00B8
:10169000E301C31804331A60D0E06B4869497A68E3
:1016A00013005B009B18DB005B561C0065497A68E1
:1016B00013005B009B18DB00CB1804331B68402130
:1016C000E2018218D3185B1806221A705E485D4941
:1016D0007A6813005B009B18DB005B561C005949BD
:1016E0007A6813005B009B18DB00CB1804331B687F
:1016F00001229A4013001A00E301C31804331A6050
:10170000514850497A6813005B009B18DB005B5618
:101710001C004C497A6813005B009B18DB00CB1857
:1017200004331B6801229A4013001A00E301C31816
:1017300018331A6082E0444842497A6813005B001B
:101740009B18DB005B561C003E497A6813005B0067
:101750009B18DB00CB1804331B684021E201821880
:10176000D3185B1806221A70374836497A68130076
:101770005B009B18DB005B561C0032497A68130043
:101780005B009B18DB00CB1804331B6801229A40D6
:1017900013001A00E301C31804331A602A482949C8
:1017A0007A6813005B009B18DB005B561C00254920
:1017B0007A6813005B009B18DB00CB1804331B68AE
:1017C00001229A4013001A00E301C31814331A606F
:1017D00034E01D481B497A6813005B009B18DB004E
:1017E0005B561C0017497A6813005B009B18DB00EE
:1017F000CB1804331B684021E2018218D3185B1810
:1018000002221A7010480F497A6813005B009B1877
:10181000DB005B561C000B497A6813005B009B18C9
:10182000DB00CB1804331B6801229A4013001A0016
:10183000E301C31808331A6000E0C046BD4603B098
:1018400090BDC046182C00000044004190B587B000
:1018500000AF7860396034497A6813005B009B18E8
:10186000DB00CB1808331B785BB2013358D0172349
:10187000F9182D487A6813005B009B18DB001B5C8D
:101880000B7029497A6813005B009B18DB00CB18AA
:1018900004331B683B6101223B699A401300FB60E3
:1018A000224A1723FB181B785BB2DB01D3180833DD
:1018B0001B68FA68134018D11C4C1723FB181B78BF
:1018C0005BB23A68511E8A41D1B24020DB01E21876
:1018D0003B69D3181A1813780120014088000421AD
:1018E0008B43191C031C0B4313703B68002B0AD15C
:1018F0000E4A1723FB181B785BB2DB01D318143395
:10190000FA681A600AE0094A1723FB181B785BB2D1
:10191000DB01D3181833FA681A60C046C04600E0ED
:10192000C046BD4607B090BD182C000000440041E1
:10193000F0B585B000AF78600A00FB1C1A70A049B2
:101940007A6813005B009B18DB00CB1808331B7808
:101950005BB2013302D101235B422DE1FB1C1B78FA
:101960005BB201330C2B00D925E19A00954BD318BB
:101970001B689F46FB1C1B785BB2092B05D17B685B
:1019800000211800FFF738FE14E1FB1C1B785BB246
:101990000A2B05D17B6802211800FFF72DFE09E113
:1019A000FB1C1B785BB20B2B00D003E17B68012191
:1019B0001800FFF721FEFDE081497A6813005B0003
:1019C0009B18DB00CB1804331B680122134076D030
:1019D0007D487B497A6813005B009B18DB005B56EF
:1019E0001C0077497A6813005B009B18DB00CB185A
:1019F00004331B685B083021E2018218D3185B189E
:101A00001B78DBB21A000F231340FB606E486C4951
:101A10007A6813005B009B18DB005B561D00684969
:101A20007A6813005B009B18DB00CB1804331B683B
:101A30005B08FA1C12781201D1B2FA68D2B20A43DA
:101A4000D4B23021EA018218D3185B18221C1A7014
:101A50005D4C5B497A6813005B009B18DB005B56AA
:101A60001E0057497A6813005B009B18DB00CB18F7
:101A700004331968544D52487A6813005B009B1870
:101A8000DB001B569C464E487A6813005B009B188F
:101A9000DB00C31804331B6840206246D201AA1839
:101AA000D3181B181B78DBB201221343D8B2402293
:101AB000F301E3185B189B18021C1A707BE0424884
:101AC0003F497A6813005B009B18DB005B561C00E3
:101AD0003B497A6813005B009B18DB00CB1804338A
:101AE0001B685B083021E2018218D3185B181B7851
:101AF000DBB21A00F0231340BB60334830497A68E8
:101B000013005B009B18DB005B561D002C497A68B4
:101B100013005B009B18DB00CB1804331B685B08C9
:101B2000FA1C12780F210A40D1B2BA68D2B20A4325
:101B3000D4B23021EA018218D3185B18221C1A7023
:101B4000214C1F497A6813005B009B18DB005B5631
:101B50001E001B497A6813005B009B18DB00CB1842
:101B600004331968184D16487A6813005B009B18F7
:101B7000DB001B569C4612487A6813005B009B18DA
:101B8000DB00C31804331B6840206246D201AA1848
:101B9000D3181B181B78DBB201221343D8B24022A2
:101BA000F301E3185B189B18021C1A7003E0012371
:101BB0005B4201E0C04600231800BD4605B0F0BD01
:101BC000182C0000E42B00000044004180B582B0D6
:101BD00000AF7860034A7B681A607B681800BD46D6
:101BE00002B080BDA030000080B582B000AF786048
:101BF0003960C046BD4602B080BD80B584B000AF3C
:101C0000F860B960BB1D1A80C046BD4604B080BDF7
:101C100080B582B000AF7860C046BD4602B080BDDE
:101C200080B500AF034B180000F0DCFCC046BD4699
:101C300080BDC0468405002080B500AF034B18006E
:101C400000F0D0FCC046BD4680BDC0462C0600203A
:101C500080B582B000AF7860054A7B681A607B6807
:101C60001800FFF7B3FF7B681800BD4602B080BDC7
:101C7000EC30000080B584B002AF786039607B68DA
:101C8000012B47D13B68254A934243D1244A254B37
:101C90001100180000F022F9234A244B110018000B
:101CA00000F01CF9224A234B1100180000F016F92D
:101CB000214A224B1100180000F010F9204A214B54
:101CC0001100180000F00AF91F4A204B11001800FB
:101CD00000F004F913491E480123019303230093E4
:101CE0000123002200F08EFB1A4A1B49184B1800F2
:101CF00000F065FE15491948012301930323009361
:101D00002323242200F07EFB124A1349134B1800B0
:101D100000F055FEC046BD4602B080BDFFFF00008A
:101D2000000800426C050020000C004270050020F5
:101D300000100042740500200014004278050020C5
:101D4000001800427C050020001C00428005002095
:101D50008405002000000020511C00002C060020FB
:101D600080B500AF034B19000120FFF783FFBD468C
:101D700080BDC046FFFF000080B500AFFEE780B524
:101D800086B000AFF860B9607A6000237B617B6841
:101D90005A1E7A605A1E9341DBB2002B14D0FB68A6
:101DA0001B681A68BB68591CB9601978FB68180071
:101DB000904703005A1E9341DBB2002B03D07B698E
:101DC00001337B61E3E7C0467B691800BD4606B07E
:101DD00080BD000080B582B000AF0200FB1D1A700C
:101DE000064BFA1D127852B21F210A400121914080
:101DF0000A001A60C046BD4602B080BD00E100E0A6
:101E0000B0B582B000AF02003960FB1D1A70FB1D37
:101E10001B787F2B32D92F4CFB1D1B785BB20F2216
:101E20001340083B99082B4AFB1D1B785BB20F201F
:101E30000340083B9B0806339B00D31804331B6800
:101E4000FA1D127852B203200240D200FF209040C7
:101E50000200D2431A403B689B01FF201840FB1D43
:101E60001B785BB203252B40DB00984003001A432C
:101E70008B1D9B00E31804331A6027E0164CFB1DF2
:101E80001B785BB29B081449FA1D127852B2920873
:101E9000C03292005258F91D097849B2032001401E
:101EA000C900FF2088400100C94311403A689201EF
:101EB000FF201040FA1D127852B203252A40D200AA
:101EC000904002000A43C0339B001A51C046BD46F1
:101ED00002B0B0BD00ED00E000E100E080B582B0EE
:101EE00000AF786039607B683A681A607B681800D8
:101EF000BD4602B080BD000080B586B000AFF8607E
:101F0000080011007B600B23FB18021C1A700A23C7
:101F1000FB180A1C1A70FB68180000F0B9F9FB687E
:101F2000180000F0D0F8FB681B680B22BA18127872
:101F3000920011001C2211400A22BA181278520392
:101F40001204120C0A431A60FB681B6884229A75FB
:101F50000B23FB181B78012B3BD10A23FB181B78A2
:101F6000012B04D11623FB1810221A8003E016233C
:101F7000FB1808221A80194B1B68D8001623FB187F
:101F80001B887A685343190000F020FD03003B6171
:101F9000FB681A683B69DBB2191C07230B40D9B2F6
:101FA00093894803DB04DB0C191C031C0B4393814E
:101FB000FB681A683B69DB089BB2DB04DB0C99B257
:101FC0009389C904C80C5B0B5B03191C031C0B43EE
:101FD0009381C046BD4606B080BDC0460C000020BF
:101FE00090B583B000AF78600C0010001900FB1CA6
:101FF000221C1A70BB1C021C1A707B1C0A1C1A7053
:102000007B681B687A68126811687A1C1278023A39
:10201000501E8241D2B212061000F0221205024078
:10202000B81C0078800702430A431A607B681B686B
:102030007A6812685168FA1C12780720024018204A
:102040003818007880010243781C0078022803D0F9
:10205000781C0078400300E0002002430A435A60E5
:10206000C046BD4603B090BD90B583B000AF786068
:1020700008001100FB1C021C1A70BB1C0A1C1A7001
:102080007B681B687A6812681168FA1C127812045F
:102090001000C02292021040BA1C127812051400DF
:1020A000C0229203224002430A431A607B681B68E5
:1020B0007A6812685268C02189020A435A60C04691
:1020C000BD4603B090BD80B582B000AF78607B683C
:1020D0001B681A6801210A431A607B681B681B6829
:1020E000DB07DB0FDBB2002B07D17B681B68DB69EA
:1020F000DB07DB0FDBB2002B01D0012300E0002364
:10210000002B00D0E9E7C046BD4602B080BD80B5D7
:1021100082B000AF78607B681B681A6802210A43AE
:102120001A607B681B68DB699B07DB0FDBB2002B47
:1021300000D0F6E7C046BD4602B080BD80B582B093
:1021400000AF78607B68180000F049F8031E0BD1DF
:102150007B681B681B7E9B07DB0FDBB201225340B1
:10216000DBB2002B01D0F3E7C046BD4602B080BD14
:1021700080B582B000AF78607B681B6800225A830C
:10218000C046BD4602B080BD80B582B000AF786069
:102190007B681B681B7E5B07DB0FDBB21800BD464C
:1021A00002B080BD80B582B000AF78607B681B68EC
:1021B0001B7E1B06DB0FDBB21800BD4602B080BDE4
:1021C00080B582B000AF78607B681A68137E80218A
:1021D00049420B431376C046BD4602B080BD80B570
:1021E00082B000AF78607B681B681B7EDB07DB0F6B
:1021F000DBB21800BD4602B080BD80B582B000AF32
:1022000078607B681B681B8DDB05DB0D9BB2DBB246
:102210001800BD4602B080BD80B582B000AF7860C6
:102220000A00FB1C1A707B681800FFF7D8FF030038
:102230001A0001235340DBB2002B00D0F3E77B6888
:102240001B68FA1C127892B21A8501231800BD4649
:1022500002B080BD80B582B000AF78607B681A683C
:102260007B681B689B7DDBB201210B43DBB293755E
:10227000C046BD4602B080BD80B582B000AF786078
:102280007B681B6801221A75C046BD4602B080BD3E
:1022900080B584B000AF78600F23FB1800221A705D
:1022A0000E23FB18FE221A707B681B68404A93427B
:1022B00008D10F23FB1814221A700E23FB180922D1
:1022C0001A7044E07B681B683A4A934208D10F2396
:1022D000FB1815221A700E23FB180A221A7036E01A
:1022E0007B681B68344A934208D10F23FB181622DF
:1022F0001A700E23FB180B221A7028E07B681B68EB
:102300002E4A934208D10F23FB1817221A700E236E
:10231000FB180C221A701AE07B681B68284A93424B
:1023200008D10F23FB1818221A700E23FB180D2258
:102330001A700CE07B681B68224A934207D10F2376
:10234000FB1819221A700E23FB180E221A700E2386
:10235000FB181B785BB2023325D00E23FB181B78C9
:102360005BB21800FFF736FD0E23FB181B785BB23B
:1023700003211800FFF744FD13490F23FB181B78B6
:102380009BB23F2213409BB28022D20113439BB2E7
:102390004B800D4B5B78DBB25BB2DBB2DB09DBB2AF
:1023A000002B01D0F5E7C046BD4604B080BDC04655
:1023B00000080042000C00420010004200140042DD
:1023C00000180042001C0042000C004080B582B0A2
:1023D00000AF78607B681800FEF7DEFA034A7B687E
:1023E0001A607B681800BD4602B080BDA0300000B6
:1023F00080B582B000AF786001231800BD4602B0FE
:1024000080BD000080B584B000AFF860B9601900ED
:10241000FB1D1A70BB1D0A1C1A70FB681800FFF721
:10242000D5FF154AFB681A60FB681433180000F0EA
:10243000F5F9FB685C33180000F0F0F9FB68BA6846
:102440001A61FB68FA1DA42112785A54FB68BA1D60
:10245000A52112785A54FB681822BA18A6211278BE
:102460005A54FB681C22BA18A72112785A54FB68E8
:102470001800BD4604B080BDEC30000080B582B0CD
:1024800000AF786039607B681B6820331B68044AA2
:10249000396878689847C046BD4602B080BDC046DE
:1024A00013040000F0B587B002AFF860B960BB1D3F
:1024B0001A80FB68A4229B5C1800FB68A4229B5C2A
:1024C00019002F4A0B005B005B18DB00D3180833A0
:1024D0001B785BB21900FFF72BFAFB68A5229B5C07
:1024E0001800FB68A5229B5C1900254A0B005B00C5
:1024F0005B18DB00D31808331B785BB21900FFF7B9
:1025000017FAFB681869BB6801220121FFF7F4FC88
:10251000FB681C69BB1D1A88FB681100180000F0DD
:1025200042F903001D00BB1D1A88FB68110018004A
:1025300000F05CF903001E00BB1D1A88FB68110047
:10254000180000F01CF90300009333000122290059
:102550002000FFF745FDFB681869FB68A722995C1E
:10256000FB68A6229B5C1A00FFF77EFDFB681B69D7
:102570001800FFF7CCFDC046BD4605B0F0BDC04613
:10258000182C000080B582B000AF78607B681B69B2
:102590001800FFF798FD7B681433180000F073F9FA
:1025A0007B685C33180000F06EF9C046BD4602B08F
:1025B00080BD80B582B000AF78607B685C33180066
:1025C00000F094F903005A1E9341DBB2002B00D0B7
:1025D000F3E77B681B691800FFF7B0FDC046BD46F6
:1025E00002B080BD90B585B000AF78607B681B6994
:1025F0001800FFF7C9FD031E0CD07B6814331C00C4
:102600007B681B691800FFF7F8FD03001900200024
:1026100000F017F97B681B691800FFF7E0FD031E47
:1026200022D07B685C33180000F060F903005A1E6A
:102630009341DBB2002B12D07B685C33180000F0B2
:1026400030F902000F23FB181A707B681A690F23F8
:10265000FB181B7819001000FFF7DEFD04E07B6813
:102660001B691800FFF708FE7B681B691800FFF75D
:1026700099FD031E09D07B681B691800FFF7A0FDB8
:102680007B681B691800FFF773FDC046BD4605B0A7
:1026900090BD80B582B000AF78607B6814331800BD
:1026A00000F024F903001800BD4602B080BD80B5DB
:1026B00082B000AF78607B685C33180000F02BF9C3
:1026C00003001800BD4602B080BD80B582B000AFE7
:1026D00078607B681433180000F039F903001800A3
:1026E000BD4602B080BD80B582B000AF78607B6827
:1026F0001433180000F0D5F803001800BD4602B0EE
:1027000080BD80B582B000AF78600A00FB1C1A70F3
:102710007B681B691800FFF762FD031E08D07B6809
:102720005C33180000F0E2F8031E01D1012300E041
:102730000023002B08D07B681A69FB1C1B7819004A
:102740001000FFF769FD15E07B685C33180000F0AE
:1027500020F9031E00D0F7E77B685C331A00FB1CEE
:102760001B781900100000F06CF87B681B691800DA
:10277000FFF770FD01231800BD4602B080BD80B593
:1027800082B000AF78600A00BB1C1A80BB1C1B889B
:10279000F0221340302B01D0002300E00123180069
:1027A000BD4602B080BD80B582B000AF78600A003F
:1027B000BB1C1A80BB1C1A88F0231B01134080220B
:1027C0009200934209D0C0229200934207D0802207
:1027D0005200934205D1052304E0062302E00723BB
:1027E00000E000231800BD4602B080BD80B582B075
:1027F00000AF78600A00BB1C1A80BB1C1B880F222C
:102800001340012B03D0022B03D0022302E000234C
:1028100000E001231800BD4602B080BD80B582B043
:1028200000AF78607B6840220021180000F095F925
:102830007B68180000F027F87B681800BD4602B0DE
:1028400080BD80B584B000AF78600A00FB1C1A70B0
:102850007B681A6C7B681100180000F08DF803008B
:10286000FB607B685A6CFB689A4208D07B681B6CE3
:102870007A68F91C0978D1547B68FA681A64C046F2
:10288000BD4604B080BD80B582B000AF78607B6883
:1028900000221A647B6800225A64C046BD4602B01A
:1028A00080BD80B584B000AF78607B685A6C7B686F
:1028B0001B6C9A4202D101235B4213E07B685A6C85
:1028C0000F23FB1879688A5C1A707B685A6C7B68E6
:1028D0001100180000F050F802007B685A640F23C2
:1028E000FB181B781800BD4604B080BD80B584B0CD
:1028F00000AF78607B681A6C7B685B6CD31AFB60F6
:10290000FB68002B02DAFB68403300E0FB6818002C
:10291000BD4604B080BD80B582B000AF78607B68F2
:102920001A6C7B685B6C9A4207DB7B681B6C3F22EE
:10293000D21A7B685B6CD31805E07B685A6C7B68A5
:102940001B6CD31A013B1800BD4602B080BD80B598
:1029500082B000AF78607B685A6C7B681B6C9A42CF
:1029600002D101235B4203E07B685B6C7A68D35C35
:102970001800BD4602B080BD80B582B000AF78605F
:1029800039603B6801333F2213401800BD4602B056
:1029900080BD80B582B000AF78607B681A6C7B68C0
:1029A00011001800FFF7E8FF02007B685B6CD31A88
:1029B0005A425341DBB21800BD4602B080BD0B0045
:1029C00010B50100180000F08DF810BD002243087A
:1029D0008B4274D303098B425FD3030A8B4244D3E7
:1029E000030B8B4228D3030C8B420DD3FF22090229
:1029F00012BA030C8B4202D31212090265D0030BE8
:102A00008B4219D300E0090AC30B8B4201D3CB03DD
:102A1000C01A5241830B8B4201D38B03C01A52411F
:102A2000430B8B4201D34B03C01A5241030B8B4221
:102A300001D30B03C01A5241C30A8B4201D3CB020C
:102A4000C01A5241830A8B4201D38B02C01A5241F1
:102A5000430A8B4201D34B02C01A5241030A8B42F4
:102A600001D30B02C01A5241CDD2C3098B4201D30C
:102A7000CB01C01A524183098B4201D38B01C01A8A
:102A8000524143098B4201D34B01C01A5241030901
:102A90008B4201D30B01C01A5241C3088B4201D3B0
:102AA000CB00C01A524183088B4201D38B00C01A5D
:102AB000524143088B4201D34B00C01A5241411A84
:102AC00000D20146524110467047FFE701B5002091
:102AD00000F006F802BDC0460029F7D076E770473F
:102AE0007047C04670B5054C05001300201E04D089
:102AF0000A000220290000E000BF70BD00000000B5
:102B000070B500260C4D0D4C641BA410A64209D1D3
:102B1000002600F02BF80A4D0A4C641BA410A642B4
:102B200005D170BDB300EB5898470136EEE7B3000E
:102B3000EB5898470136F2E7100000201000002003
:102B40001000002024000020002310B59A4200D17C
:102B500010BDCC5CC4540133F8E7030082189342E3
:102B600000D1704719700133F9E70000F8B5C0468D
:102B7000F8BC08BC9E467047F8B5C046F8BC08BC17
:102B80009E4670470000000000000000F90A0000A7
:102B9000BD0A0000170A0000A10A0000F9090000A0
:102BA000650A0000290A0000000000000000000083
:102BB000791D00007F1D00007509000087090000D5
:102BC000791D0000791D0000791D0000C615000068
:102BD0005C1500007815000094150000AA1500008F
:102BE0005C150000AE1B0000B8190000B819000009
:102BF000B8190000B8190000B8190000B819000091
:102C0000B8190000B8190000741900007419000008
:102C10007419000074190000000000000B0000008F
:102C20000200000004000000FF00FFFFFFFF0B0098
:102C3000000000000A000000020000000400000084
:102C4000FF00FFFFFFFF0A00000000000800000077
:102C5000040000001C000000FF0000000000FF0056
:102C60000000000009000000040000001C0000003B
:102C7000FF00010001000900000000000E0000003C
:102C8000040000001C000000FF00000300030E0011
:102C9000000000000F000000040000001C00000005
:102CA000FF00010301030F000000000014000000FA
:102CB000050000001C000000FF00020002000400EC
:102CC0000000000015000000050000001C000000CE
:102CD000FF000300030005000000000006000000E4
:102CE000040000001C000000FF00000100010600BD
:102CF0000000000007000000040000001C000000AD
:102D0000FF000101010107000000000012000000A7
:102D1000040000001C000000FF000003000302008C
:102D20000000000010000000040000001C00000073
:102D3000FF0000020002000000000000130000007D
:102D4000040000001C000000FF0001030103030059
:102D50000000000011000000040000000C00000052
:102D6000FF000102FFFF0100FF0000000000000063
:102D7000FF00000000000000FF00FFFFFFFFFF005A
:102D8000000000000300000001000000020000003D
:102D9000FF00FFFFFFFFFF00000000001600000023
:102DA0000200000004000000FF00FFFFFFFF06001C
:102DB00000000000170000000200000004000000F6
:102DC000FF00FFFFFFFF0700000000000C000000F5
:102DD0000300000004000000FF00FFFFFFFF0C00E5
:102DE000FF00000000000000FF00000000000000E5
:102DF000FF00FFFFFFFFFF00010000000B000000CD
:102E00000300000004000000FF00FFFFFFFF0B00B5
:102E1000010000000A0000000300000004000000A0
:102E2000FF00FFFFFFFF0A00FF000000000000009E
:102E3000FF00000000000000FF00FFFFFFFFFF0099
:102E4000FF00000000000000FF0000000000000084
:102E5000FF00FFFFFFFFFF00000000000200000076
:102E600001000000020000000000FFFFFFFF020061
:102E70000100000008000000010000000200000046
:102E80000200FFFFFFFF0800010000000900000032
:102E900001000000020000000300FFFFFFFF090027
:102EA000000000000400000001000000020000001B
:102EB0000400FFFFFFFF0400000000000500000009
:102EC00001000000020000000500FFFFFFFF0500F9
:102ED00001000000020000000100000002000000EC
:102EE0000A00FFFFFFFF02000100000003000000D6
:102EF0000B00000004000000FF00FFFFFFFFFF00C9
:102F0000000000001B0000000B0000000400000097
:102F1000FF00FFFFFFFFFF00000000001C0000009B
:102F20000600000000000000FF00FFFFFFFFFF00A1
:102F30000000000018000000060000000000000073
:102F4000FF00FFFFFFFFFF0000000000190000006E
:102F50000600000000000000FF00FFFFFFFFFF0071
:102F60000100000016000000030000000000000047
:102F7000FF00FFFFFFFFFF0001000000170000003F
:102F80000300000000000000FF00FFFFFFFFFF0044
:102F90000000000016000000020000000000000019
:102FA000FF00FFFFFFFFFF00000000001700000010
:102FB0000200000000000000FF00FFFFFFFFFF0015
:102FC00000000000130000000200000000000000EC
:102FD000FF00FFFFFFFFFF000000000010000000E7
:102FE0000200000000000000FF00FFFFFFFFFF00E5
:102FF00000000000120000000200000000000000BD
:10300000FF00FFFFFFFFFF000000000011000000B5
:103010000200000000000000FF00FFFFFFFFFF00B4
:10302000000000000D000000040000000C00000083
:10303000FF000100FFFF0D00000000001500000070
:10304000050000000C000000FF000300FFFFFF0070
:103050000000000006000000040000000C0000005A
:10306000FF000001FFFFFF0000000000070000005C
:10307000040000000C000000FF000101FFFFFF0042
:10308000000000000200000001000000020000003B
:103090001400FFFFFFFF020000000000000000001E
:1030A000791D00007F1D000075090000791D0000DA
:1030B000791D0000791D0000791D0000E91B00004A
:1030C000FB1B0000111C0000791D00000000000027
:1030D00000000000791D00007F1D00007509000040
:1030E0008709000000000000000000000327000026
:1030F0007F1D0000AF260000B325000093260000CE
:10310000E7260000CB2600007D240000A524000057
:1031100085250000F12300000000000080B500AF0D
:1031200072B6174B0433174A934225D9FDF7C2FAFA
:1031300003001A0001235340DBB2002B00D0F5E757
:103140001149114B1B8B9BB22022FF3213439BB2C0
:103150000B830D4B0A4A043292085200DA610A4B83
:103160000A4A1A80FDF7A6FA03001A000123534009
:10317000DBB2002B01D0F5E7C046FDF78BFAFEE786
:1031800000000000030200000040004102A5FFFF14
:1031900000000000FFFFFFFFFFFFFFFF40420F00A6
:1031A000DD0000001D050000590B00008112000029
:1031B000611D0000B500000000000000FFFFFFFFE0
:1031C000FFFFFFFFFFFFFFFFFFFFFFFFFFFFFFFF0F
:1031D000FFFFFFFFFFFFFFFFFFFFFFFFFFFFFFFFFF
:1031E000FFFFFFFFFFFFFFFFFFFFFFFFFFFFFFFFEF
:1031F000FFFFFFFFFFFFFFFFFFFFFFFFFFFFFFFFDF
:020000023000CC
:00000001FF
